{
  "contractName": "ConsentContract",
  "abi": [
    {
      "inputs": [
        {
          "internalType": "address",
          "name": "thirdParty",
          "type": "address"
        }
      ],
      "name": "giveConsent",
      "outputs": [],
      "stateMutability": "nonpayable",
      "type": "function"
    },
    {
      "inputs": [
        {
          "internalType": "address",
          "name": "thirdParty",
          "type": "address"
        }
      ],
      "name": "revokeConsent",
      "outputs": [],
      "stateMutability": "nonpayable",
      "type": "function"
    },
    {
      "inputs": [
        {
          "internalType": "address",
          "name": "user",
          "type": "address"
        },
        {
          "internalType": "address",
          "name": "thirdParty",
          "type": "address"
        }
      ],
      "name": "verifyConsent",
      "outputs": [
        {
          "internalType": "bool",
          "name": "",
          "type": "bool"
        }
      ],
      "stateMutability": "view",
      "type": "function",
      "constant": true
    }
  ],
  "bytecode": "0x608060405234801561001057600080fd5b5061039e806100206000396000f3fe608060405234801561001057600080fd5b50600436106100415760003560e01c8063799cb1c2146100465780639a18a6f614610062578063d1a4862714610092575b600080fd5b610060600480360381019061005b9190610284565b6100ae565b005b61007c600480360381019061007791906102ad565b610145565b60405161008991906102f8565b60405180910390f35b6100ac60048036038101906100a79190610284565b6101d8565b005b60016000803373ffffffffffffffffffffffffffffffffffffffff1673ffffffffffffffffffffffffffffffffffffffff16815260200190815260200160002060008373ffffffffffffffffffffffffffffffffffffffff1673ffffffffffffffffffffffffffffffffffffffff16815260200190815260200160002060006101000a81548160ff02191690831515021790555050565b60008060008473ffffffffffffffffffffffffffffffffffffffff1673ffffffffffffffffffffffffffffffffffffffff16815260200190815260200160002060008373ffffffffffffffffffffffffffffffffffffffff1673ffffffffffffffffffffffffffffffffffffffff16815260200190815260200160002060009054906101000a900460ff16905092915050565b60008060003373ffffffffffffffffffffffffffffffffffffffff1673ffffffffffffffffffffffffffffffffffffffff16815260200190815260200160002060008373ffffffffffffffffffffffffffffffffffffffff1673ffffffffffffffffffffffffffffffffffffffff16815260200190815260200160002060006101000a81548160ff02191690831515021790555050565b60008135905061027e81610351565b92915050565b60006020828403121561029657600080fd5b60006102a48482850161026f565b91505092915050565b600080604083850312156102c057600080fd5b60006102ce8582860161026f565b92505060206102df8582860161026f565b9150509250929050565b6102f281610325565b82525050565b600060208201905061030d60008301846102e9565b92915050565b600061031e82610331565b9050919050565b60008115159050919050565b600073ffffffffffffffffffffffffffffffffffffffff82169050919050565b61035a81610313565b811461036557600080fd5b5056fea2646970667358221220cefa4d4dbe491db850e8976743f344c94fd42da9d0f256c3f9ad79da6f2a0f5464736f6c63430008000033",
  "immutableReferences": {},
  "source": "// SPDX-License-Identifier: GPL-3.0\r\npragma solidity >=0.4.22 <0.9.0;\r\n\r\ncontract ConsentContract {\r\n    \r\n    // Define the consent registry\r\n    mapping(address => mapping(address => bool)) consentRegistry;\r\n    \r\n    // Define the give consent function\r\n    function giveConsent(address thirdParty) public {\r\n        consentRegistry[msg.sender][thirdParty] = true;\r\n    }\r\n    \r\n    // Define the revoke consent function\r\n    function revokeConsent(address thirdParty) public {\r\n        consentRegistry[msg.sender][thirdParty] = false;\r\n    }\r\n    \r\n    // Define the verify consent function\r\n    function verifyConsent(address user, address thirdParty) public view returns(bool) {\r\n        return consentRegistry[user][thirdParty];\r\n    }\r\n}\r\n",
  "sourcePath": "C:\\Users\\91772\\Desktop\\web\\contracts\\ConsentContract.sol",
  "compiler": {
    "name": "solc",
    "version": "0.8.0+commit.c7dfd78e.Emscripten.clang"
  },
  "schemaVersion": "3.4.13",
  "updatedAt": "2023-03-19T12:02:20.525Z",
  "networkType": "ethereum",
  "devdoc": {
    "kind": "dev",
    "methods": {},
    "version": 1
  },
  "userdoc": {
    "kind": "user",
    "methods": {},
    "version": 1
  }
}